{
  "contractName": "VideogameContract",
  "abi": [
    {
      "inputs": [],
      "payable": false,
      "stateMutability": "nonpayable",
      "type": "constructor"
    },
    {
      "anonymous": false,
      "inputs": [
        {
          "indexed": false,
          "internalType": "address",
          "name": "addr",
          "type": "address"
        },
        {
          "indexed": false,
          "internalType": "string",
          "name": "message",
          "type": "string"
        }
      ],
      "name": "soldOutProductEvent",
      "type": "event"
    },
    {
      "anonymous": false,
      "inputs": [
        {
          "indexed": false,
          "internalType": "address",
          "name": "addr",
          "type": "address"
        },
        {
          "indexed": false,
          "internalType": "string",
          "name": "message",
          "type": "string"
        }
      ],
      "name": "soldProductEvent",
      "type": "event"
    },
    {
      "constant": false,
      "inputs": [
        {
          "internalType": "string",
          "name": "_title",
          "type": "string"
        },
        {
          "internalType": "string",
          "name": "_subtitle",
          "type": "string"
        },
        {
          "internalType": "string",
          "name": "_year",
          "type": "string"
        },
        {
          "internalType": "uint256",
          "name": "_stock",
          "type": "uint256"
        },
        {
          "internalType": "uint256",
          "name": "_price",
          "type": "uint256"
        }
      ],
      "name": "saveProduct",
      "outputs": [
        {
          "internalType": "uint256",
          "name": "",
          "type": "uint256"
        }
      ],
      "payable": false,
      "stateMutability": "nonpayable",
      "type": "function"
    },
    {
      "constant": true,
      "inputs": [
        {
          "internalType": "uint256",
          "name": "_id",
          "type": "uint256"
        }
      ],
      "name": "getProduct",
      "outputs": [
        {
          "internalType": "string",
          "name": "",
          "type": "string"
        },
        {
          "internalType": "string",
          "name": "",
          "type": "string"
        },
        {
          "internalType": "string",
          "name": "",
          "type": "string"
        },
        {
          "internalType": "uint256",
          "name": "",
          "type": "uint256"
        },
        {
          "internalType": "uint256",
          "name": "",
          "type": "uint256"
        },
        {
          "internalType": "enum VideogameContract.StockStatus",
          "name": "",
          "type": "uint8"
        }
      ],
      "payable": false,
      "stateMutability": "view",
      "type": "function"
    },
    {
      "constant": false,
      "inputs": [
        {
          "internalType": "uint256",
          "name": "_id",
          "type": "uint256"
        },
        {
          "internalType": "uint256",
          "name": "_stock",
          "type": "uint256"
        }
      ],
      "name": "stockProduct",
      "outputs": [],
      "payable": false,
      "stateMutability": "nonpayable",
      "type": "function"
    },
    {
      "constant": false,
      "inputs": [
        {
          "internalType": "uint256",
          "name": "_id",
          "type": "uint256"
        }
      ],
      "name": "buyProduct",
      "outputs": [],
      "payable": true,
      "stateMutability": "payable",
      "type": "function"
    },
    {
      "constant": false,
      "inputs": [
        {
          "internalType": "uint256",
          "name": "amount",
          "type": "uint256"
        }
      ],
      "name": "transferToOwner",
      "outputs": [],
      "payable": true,
      "stateMutability": "payable",
      "type": "function"
    },
    {
      "constant": true,
      "inputs": [],
      "name": "getContractBalance",
      "outputs": [
        {
          "internalType": "uint256",
          "name": "",
          "type": "uint256"
        }
      ],
      "payable": false,
      "stateMutability": "view",
      "type": "function"
    },
    {
      "constant": true,
      "inputs": [],
      "name": "getProducts",
      "outputs": [
        {
          "internalType": "string",
          "name": "",
          "type": "string"
        }
      ],
      "payable": false,
      "stateMutability": "view",
      "type": "function"
    }
  ],
  "bytecode": "0x6080604052600060015534801561001557600080fd5b50336000806101000a81548173ffffffffffffffffffffffffffffffffffffffff021916908373ffffffffffffffffffffffffffffffffffffffff160217905550611ca1806100656000396000f3fe6080604052600436106100705760003560e01c806387c1ed121161004e57806387c1ed12146102ec5780639486a31e1461031a578063b9db15b41461035f578063c29b2f201461050e57610070565b80630307eea0146100755780636f9fb98a146102935780638642269e146102be575b600080fd5b34801561008157600080fd5b5061027d600480360360a081101561009857600080fd5b81019080803590602001906401000000008111156100b557600080fd5b8201836020820111156100c757600080fd5b803590602001918460018302840111640100000000831117156100e957600080fd5b91908080601f016020809104026020016040519081016040528093929190818152602001838380828437600081840152601f19601f8201169050808301925050505050505091929192908035906020019064010000000081111561014c57600080fd5b82018360208201111561015e57600080fd5b8035906020019184600183028401116401000000008311171561018057600080fd5b91908080601f016020809104026020016040519081016040528093929190818152602001838380828437600081840152601f19601f820116905080830192505050505050509192919290803590602001906401000000008111156101e357600080fd5b8201836020820111156101f557600080fd5b8035906020019184600183028401116401000000008311171561021757600080fd5b91908080601f016020809104026020016040519081016040528093929190818152602001838380828437600081840152601f19601f820116905080830192505050505050509192919290803590602001909291908035906020019092919050505061059e565b6040518082815260200191505060405180910390f35b34801561029f57600080fd5b506102a8610af2565b6040518082815260200191505060405180910390f35b6102ea600480360360208110156102d457600080fd5b8101908080359060200190929190505050610bcd565b005b6103186004803603602081101561030257600080fd5b8101908080359060200190929190505050610f02565b005b34801561032657600080fd5b5061035d6004803603604081101561033d57600080fd5b8101908080359060200190929190803590602001909291905050506110af565b005b34801561036b57600080fd5b506103986004803603602081101561038257600080fd5b8101908080359060200190929190505050611273565b604051808060200180602001806020018781526020018681526020018560038111156103c057fe5b60ff16815260200184810384528a818151815260200191508051906020019080838360005b838110156104005780820151818401526020810190506103e5565b50505050905090810190601f16801561042d5780820380516001836020036101000a031916815260200191505b50848103835289818151815260200191508051906020019080838360005b8381101561046657808201518184015260208101905061044b565b50505050905090810190601f1680156104935780820380516001836020036101000a031916815260200191505b50848103825288818151815260200191508051906020019080838360005b838110156104cc5780820151818401526020810190506104b1565b50505050905090810190601f1680156104f95780820380516001836020036101000a031916815260200191505b50995050505050505050505060405180910390f35b34801561051a57600080fd5b506105236115bf565b6040518080602001828103825283818151815260200191508051906020019080838360005b83811015610563578082015181840152602081019050610548565b50505050905090810190601f1680156105905780820380516001836020036101000a031916815260200191505b509250505060405180910390f35b60003373ffffffffffffffffffffffffffffffffffffffff166000809054906101000a900473ffffffffffffffffffffffffffffffffffffffff1673ffffffffffffffffffffffffffffffffffffffff1614610662576040517f08c379a000000000000000000000000000000000000000000000000000000000815260040180806020018281038252601f8152602001807f5468652073656e6465722068617320746f20626520746865206f776e65722e0081525060200191505060405180910390fd5b6040518060600160405280878152602001868152602001858152506002600082015181600001908051906020019061069b929190611ab7565b5060208201518160010190805190602001906106b8929190611ab7565b5060408201518160020190805190602001906106d5929190611ab7565b509050506040518060a001604052806002604051806060016040529081600082018054600181600116156101000203166002900480601f01602080910402602001604051908101604052809291908181526020018280546001816001161561010002031660029004801561078a5780601f1061075f5761010080835404028352916020019161078a565b820191906000526020600020905b81548152906001019060200180831161076d57829003601f168201915b50505050508152602001600182018054600181600116156101000203166002900480601f01602080910402602001604051908101604052809291908181526020018280546001816001161561010002031660029004801561082c5780601f106108015761010080835404028352916020019161082c565b820191906000526020600020905b81548152906001019060200180831161080f57829003601f168201915b50505050508152602001600282018054600181600116156101000203166002900480601f0160208091040260200160405190810160405280929190818152602001828054600181600116156101000203166002900480156108ce5780601f106108a3576101008083540402835291602001916108ce565b820191906000526020600020905b8154815290600101906020018083116108b157829003601f168201915b5050505050815250508152602001848152602001600060038111156108ef57fe5b81526020018381526020016001151581525060056000820151816000016000820151816000019080519060200190610928929190611ab7565b506020820151816001019080519060200190610945929190611ab7565b506040820151816002019080519060200190610962929190611ab7565b5050506020820151816003015560408201518160040160006101000a81548160ff0219169083600381111561099357fe5b02179055506060820151816005015560808201518160060160006101000a81548160ff0219169083151502179055509050506005600c60006001600081546001019190508190558152602001908152602001600020600082018160000160008201816000019080546001816001161561010002031660029004610a17929190611b37565b5060018201816001019080546001816001161561010002031660029004610a3f929190611b37565b5060028201816002019080546001816001161561010002031660029004610a67929190611b37565b505050600382015481600301556004820160009054906101000a900460ff168160040160006101000a81548160ff02191690836003811115610aa557fe5b0217905550600582015481600501556006820160009054906101000a900460ff168160060160006101000a81548160ff021916908315150217905550905050600154905095945050505050565b60003373ffffffffffffffffffffffffffffffffffffffff166000809054906101000a900473ffffffffffffffffffffffffffffffffffffffff1673ffffffffffffffffffffffffffffffffffffffff1614610bb6576040517f08c379a000000000000000000000000000000000000000000000000000000000815260040180806020018281038252601f8152602001807f5468652073656e6465722068617320746f20626520746865206f776e65722e0081525060200191505060405180910390fd5b670de0b6b3a76400004781610bc757fe5b04905090565b610bd681611a8a565b610c48576040517f08c379a00000000000000000000000000000000000000000000000000000000081526004018080602001828103825260118152602001807f50726f64756374206e6f7420666f756e6400000000000000000000000000000081525060200191505060405180910390fd5b6000600c6000838152602001908152602001600020905060006003811115610c6c57fe5b8160040160009054906101000a900460ff166003811115610c8957fe5b14610cfc576040517f08c379a00000000000000000000000000000000000000000000000000000000081526004018080602001828103825260108152602001807f50726f6475637420736f6c64206f75740000000000000000000000000000000081525060200191505060405180910390fd5b670de0b6b3a76400008160050154023414610d7f576040517f08c379a000000000000000000000000000000000000000000000000000000000815260040180806020018281038252601e8152602001807f54686520616d6f756e74206973206e6f7420746865207265717569726564000081525060200191505060405180910390fd5b60008160030160008154600190039190508190551415610e615760018160040160006101000a81548160ff02191690836003811115610dba57fe5b02179055507fe0fce1bf1ceb15fb44c2e416de7a30f1295295ca4a1ff571ac6df09d84a4e80933604051808273ffffffffffffffffffffffffffffffffffffffff1673ffffffffffffffffffffffffffffffffffffffff168152602001806020018281038252601b8152602001807f5468652070726f64756374206973206f7574206f662073746f636b00000000008152506020019250505060405180910390a150610eff565b7fd32abfbab8cdbd6c3b155a9dfda6f66c48765fc8632c56556fff78329028897c33604051808273ffffffffffffffffffffffffffffffffffffffff1673ffffffffffffffffffffffffffffffffffffffff16815260200180602001828103825260158152602001807f5468652070726f64756374207765726520736f6c6400000000000000000000008152506020019250505060405180910390a1505b50565b3373ffffffffffffffffffffffffffffffffffffffff166000809054906101000a900473ffffffffffffffffffffffffffffffffffffffff1673ffffffffffffffffffffffffffffffffffffffff1614610fc4576040517f08c379a000000000000000000000000000000000000000000000000000000000815260040180806020018281038252601f8152602001807f5468652073656e6465722068617320746f20626520746865206f776e65722e0081525060200191505060405180910390fd5b8047101561103a576040517f08c379a00000000000000000000000000000000000000000000000000000000081526004018080602001828103825260128152602001807f496e73756666696369656e742066756e6473000000000000000000000000000081525060200191505060405180910390fd5b6000809054906101000a900473ffffffffffffffffffffffffffffffffffffffff1673ffffffffffffffffffffffffffffffffffffffff166108fc670de0b6b3a764000083029081150290604051600060405180830381858888f193505050501580156110ab573d6000803e3d6000fd5b5050565b3373ffffffffffffffffffffffffffffffffffffffff166000809054906101000a900473ffffffffffffffffffffffffffffffffffffffff1673ffffffffffffffffffffffffffffffffffffffff1614611171576040517f08c379a000000000000000000000000000000000000000000000000000000000815260040180806020018281038252601f8152602001807f5468652073656e6465722068617320746f20626520746865206f776e65722e0081525060200191505060405180910390fd5b61117a82611a8a565b6111ec576040517f08c379a00000000000000000000000000000000000000000000000000000000081526004018080602001828103825260118152602001807f50726f64756374206e6f7420666f756e6400000000000000000000000000000081525060200191505060405180910390fd5b60008111611245576040517f08c379a0000000000000000000000000000000000000000000000000000000008152600401808060200182810382526026815260200180611c476026913960400191505060405180910390fd5b6000600c60008481526020019081526020016000209050818160030160008282540192505081905550505050565b6060806060600080600061128687611a8a565b6112f8576040517f08c379a00000000000000000000000000000000000000000000000000000000081526004018080602001828103825260118152602001807f50726f64756374206e6f7420666f756e6400000000000000000000000000000081525060200191505060405180910390fd5b611300611bbe565b600c60008981526020019081526020016000206040518060a001604052908160008201604051806060016040529081600082018054600181600116156101000203166002900480601f0160208091040260200160405190810160405280929190818152602001828054600181600116156101000203166002900480156113c75780601f1061139c576101008083540402835291602001916113c7565b820191906000526020600020905b8154815290600101906020018083116113aa57829003601f168201915b50505050508152602001600182018054600181600116156101000203166002900480601f0160208091040260200160405190810160405280929190818152602001828054600181600116156101000203166002900480156114695780601f1061143e57610100808354040283529160200191611469565b820191906000526020600020905b81548152906001019060200180831161144c57829003601f168201915b50505050508152602001600282018054600181600116156101000203166002900480601f01602080910402602001604051908101604052809291908181526020018280546001816001161561010002031660029004801561150b5780601f106114e05761010080835404028352916020019161150b565b820191906000526020600020905b8154815290600101906020018083116114ee57829003601f168201915b5050505050815250508152602001600382015481526020016004820160009054906101000a900460ff16600381111561154057fe5b600381111561154b57fe5b8152602001600582015481526020016006820160009054906101000a900460ff16151515158152505090508060000151600001518160000151602001518260000151604001518360200151846060015185604001518595508494508393509650965096509650965096505091939550919395565b6060806040518060400160405280600181526020017f7c00000000000000000000000000000000000000000000000000000000000000815250905060006001541415611673576040517f08c379a00000000000000000000000000000000000000000000000000000000081526004018080602001828103825260078152602001807f4e6f20646174610000000000000000000000000000000000000000000000000081525060200191505060405180910390fd5b6000600190505b6001548111611a825761168b611bbe565b600c60008381526020019081526020016000206040518060a001604052908160008201604051806060016040529081600082018054600181600116156101000203166002900480601f0160208091040260200160405190810160405280929190818152602001828054600181600116156101000203166002900480156117525780601f1061172757610100808354040283529160200191611752565b820191906000526020600020905b81548152906001019060200180831161173557829003601f168201915b50505050508152602001600182018054600181600116156101000203166002900480601f0160208091040260200160405190810160405280929190818152602001828054600181600116156101000203166002900480156117f45780601f106117c9576101008083540402835291602001916117f4565b820191906000526020600020905b8154815290600101906020018083116117d757829003601f168201915b50505050508152602001600282018054600181600116156101000203166002900480601f0160208091040260200160405190810160405280929190818152602001828054600181600116156101000203166002900480156118965780601f1061186b57610100808354040283529160200191611896565b820191906000526020600020905b81548152906001019060200180831161187957829003601f168201915b5050505050815250508152602001600382015481526020016004820160009054906101000a900460ff1660038111156118cb57fe5b60038111156118d657fe5b8152602001600582015481526020016006820160009054906101000a900460ff1615151515815250509050828160000151600001518260000151602001516040516020018084805190602001908083835b6020831061194a5780518252602082019150602081019050602083039250611927565b6001836020036101000a03801982511681845116808217855250505050505090500183805190602001908083835b6020831061199b5780518252602082019150602081019050602083039250611978565b6001836020036101000a038019825116818451168082178552505050505050905001807f3a2000000000000000000000000000000000000000000000000000000000000081525060020182805190602001908083835b60208310611a1457805182526020820191506020810190506020830392506119f1565b6001836020036101000a038019825116818451168082178552505050505050905001807f7c000000000000000000000000000000000000000000000000000000000000008152506001019350505050604051602081830303815290604052925050808060010191505061167a565b508091505090565b6000600c600083815260200190815260200160002060060160009054906101000a900460ff169050919050565b828054600181600116156101000203166002900490600052602060002090601f016020900481019282601f10611af857805160ff1916838001178555611b26565b82800160010185558215611b26579182015b82811115611b25578251825591602001919060010190611b0a565b5b509050611b339190611c00565b5090565b828054600181600116156101000203166002900490600052602060002090601f016020900481019282601f10611b705780548555611bad565b82800160010185558215611bad57600052602060002091601f016020900482015b82811115611bac578254825591600101919060010190611b91565b5b509050611bba9190611c00565b5090565b6040518060a00160405280611bd1611c25565b81526020016000815260200160006003811115611bea57fe5b8152602001600081526020016000151581525090565b611c2291905b80821115611c1e576000816000905550600101611c06565b5090565b90565b6040518060600160405280606081526020016060815260200160608152509056fe54686520616d6f756e742068617320746f2062652067726561746572207468616e207a65726fa265627a7a72315820ae0aba7ee0257eb8e88314bfe472e68e0dcd00408a8b022eb7d61daf61bf74d864736f6c63430005100032",
  "source": "//SPDX-License-Identifier: MIT\n\npragma solidity >=0.4.22;\n\ncontract VideogameContract {\n\n    address payable private owner;\n    uint private id = 0;\n\n    struct VideoGame {\n        string title;\n        string subtitle;\n        string year;\n    }\n\n    struct Product {\n        VideoGame videoGame;\n        uint stock;\n        StockStatus status;\n        uint price;\n        bool saved;\n    }\n\n    enum StockStatus {\n        Available,\n        SoldOut,\n        PreOrder,\n        Unavailable\n    }\n\n    modifier isOwner() {\n        require(owner == msg.sender, \"The sender has to be the owner.\");\n        _;\n    }\n\n    VideoGame private videoGame;\n    Product private product;\n\n    mapping(uint => Product) private products;\n\n    event soldProductEvent(address addr, string message);\n    event soldOutProductEvent(address addr, string message);\n\n    constructor() public  {\n        owner = msg.sender;\n    }\n\n    function saveProduct(string memory _title, string memory _subtitle, string memory _year,\n        uint _stock, uint _price) public isOwner returns(uint) {\n        videoGame = VideoGame(_title, _subtitle, _year);\n        product = Product(videoGame, _stock,StockStatus.Available ,_price, true);\n        products[++id] = product;\n\n        return id;\n    }\n\n    function getProduct(uint _id) public view returns (string memory, \n        string memory, string memory, uint, uint, StockStatus)  {\n        require(isSavedProduct(_id),\"Product not found\");\n\n        Product memory result = products[_id];\n\n        return(result.videoGame.title, result.videoGame.subtitle , \n            result.videoGame.year ,result.stock, result.price, result.status);\n    }\n\n    function stockProduct(uint _id, uint _stock) public isOwner {\n        require(isSavedProduct(_id),\"Product not found\");\n        \n        if(_stock <= 0) {\n            revert(\"The amount has to be greater than zero\");\n        }\n\n        Product storage result = products[_id];\n        result.stock += _stock;\n    }\n\n    function isSavedProduct(uint _id) private view returns(bool) {\n        return products[_id].saved;\n    }\n\n    function buyProduct(uint _id) public payable {\n        require(isSavedProduct(_id),\"Product not found\");\n        Product storage result = products[_id];\n        require(result.status == StockStatus.Available, \"Product sold out\");\n        require(msg.value == result.price * 1 ether, \"The amount is not the required\");\n\n        //Discount one product of stock when a product is bought\n        if(--result.stock == 0) {\n            result.status = StockStatus.SoldOut;\n            emit soldOutProductEvent(msg.sender, \"The product is out of stock\");\n            return;\n        }\n\n        emit soldProductEvent(msg.sender, \"The product were sold\");\n    }\n\n    function transferToOwner(uint amount) public payable isOwner {\n        require(address(this).balance >= amount, \"Insufficient funds\");\n        owner.transfer(amount * 1 ether);\n    }\n\n    function getContractBalance() public view isOwner returns (uint) {\n        return address(this).balance / 1e18;\n    }\n\n    function getProducts() public view returns(string memory) {\n        string memory titles = \"|\";\n\n        if(id == 0) {\n            revert(\"No data\");\n        }\n\n        for(uint i = 1; i <= id ; i++) {\n            Product memory result = products[i];\n            titles = string(abi.encodePacked(titles,result.videoGame.title,\n            \": \", result.videoGame.subtitle,\"|\"));\n        }\n\n        return(titles);\n    }\n\n}",
  "sourcePath": "/Users/joseramosvanegas/Documents/videogame-booking/contracts/1_VideogameContract.sol",
  "compiler": {
    "name": "solc",
    "version": "0.5.16+commit.9c3226ce.Emscripten.clang"
  },
  "schemaVersion": "3.3.4",
  "updatedAt": "2021-08-21T03:45:14.289Z",
  "networkType": "ethereum",
  "devdoc": {
    "methods": {}
  },
  "userdoc": {
    "methods": {}
  }
}